:020000040000FA
:1000000000008A110A12192C83120313A8007F081A
:10001000A900AA010530280203181F290030831205
:1000200003138A001C30831203132807031C1B28A8
:10003000831203138A0A8200212854288728BA28A9
:10004000ED28003083120313AB000130A80029080B
:10005000003C0319322883120313A80DAB0D013E97
:10006000031C2B2883120313050883120313AC000F
:10007000AD012C08A8050030AB052B08AD00280801
:10008000AC002908003C03194F2803108312031306
:10009000AD1B0314AD0CAC0C013E031C45288312B0
:1000A00003132C08AA001F29003083120313AB008E
:1000B0000130A8002908003C0319652883120313A6
:1000C000A80DAB0D013E031C5E2883120313060826
:1000D00083120313AC00AD012C08A8050030AB055A
:1000E0002B08AD002808AC002908003C0319822821
:1000F000031083120313AD1B0314AD0CAC0C013EB3
:10010000031C7828831203132C08AA001F2900302F
:1001100083120313AB000130A8002908003C031927
:10012000982883120313A80DAB0D013E031C9128E0
:1001300083120313070883120313AC00AD012C08CC
:10014000A8050030AB052B08AD002808AC00290835
:10015000003C0319B528031083120313AD1B0314CD
:10016000AD0CAC0C013E031CAB28831203132C080E
:10017000AA001F29003083120313AB000130A8002E
:100180002908003C0319CB2883120313A80DAB0DDB
:10019000013E031CC42883120313080883120313AF
:1001A000AC00AD012C08A8050030AB052B08AD0054
:1001B0002808AC002908003C0319E8280310831222
:1001C0000313AD1B0314AD0CAC0C013E031CDE2865
:1001D000831203132C08AA001F2900308312031373
:1001E000AB000130A8002908003C0319FE28831247
:1001F0000313A80DAB0D013E031CF7288312031354
:10020000090883120313AC00AD012C08A8050030C7
:10021000AB052B08AD002808AC002908003C0319E9
:100220001B29031083120313AD1B0314AD0CAC0C7C
:10023000013E031C1129831203132C08AA00831208
:1002400003132A08080083120313A4007F08A500E3
:100250007E08A600053024020318172A01308312F5
:1002600003138A003C30831203132407031C3B2929
:10027000831203138A0A820041296C299729C22913
:10028000ED29013083120313A4002508003C031953
:100290004F2983120313A40D013E031C4929831225
:1002A0000313A40983120313050883120313A4057F
:1002B0002608A7002508003C0319642983120313AC
:1002C000A70D013E031C5E29831203132708240493
:1002D000831203138500172A013083120313A4002D
:1002E0002508003C03197A2983120313A40D013E4B
:1002F000031C742983120313A40983120313060831
:1003000083120313A4052608A7002508003C03193F
:100310008F2983120313A70D013E031C8929831221
:10032000031327082404831203138600172A0130BD
:1003300083120313A4002508003C0319A529831286
:100340000313A40D013E031C9F2983120313A40968
:1003500083120313070883120313A4052608A700BA
:100360002508003C0319BA2983120313A70D013E87
:10037000031CB429831203132708240483120313D4
:100380008700172A013083120313A4002508003CBC
:100390000319D02983120313A40D013E031CCA299B
:1003A00083120313A409831203130808831203138F
:1003B000A4052608A7002508003C0319E529831297
:1003C0000313A70D013E031CDF2983120313270823
:1003D0002404831203138800172A013083120313A5
:1003E000A4002508003C0319FB2983120313A40D64
:1003F000013E031CF52983120313A409831203137E
:10040000090883120313A4052608A7002508003C49
:100410000319102A83120313A70D013E031C0A2A95
:10042000831203132708240483120313890008008E
:10043000080083120313A0007F08A1007E08A20019
:100440000530200203180D2B0230831203138A009B
:100450003230831203132007031C312A8312031343
:100460008A0A8200372A622A8D2AB82AE32A0130B2
:1004700083120313A0002108003C0319452A8312AC
:100480000313A00D013E031C3F2A83120313A0098E
:1004900083160313050883120313A0052208A30083
:1004A0002108003C03195A2A83120313A30D013EAD
:1004B000031C542A831203132308200483160313F6
:1004C00085000D2B013083120313A0002108003C8E
:1004D0000319702A83120313A00D013E031C6A2A1C
:1004E00083120313A0098316031306088312031350
:1004F000A0052208A3002108003C0319852A8312C5
:100500000313A30D013E031C7F2A83120313230848
:1005100020048316031386000D2B0130831203136E
:10052000A0002108003C03199B2A83120313A00D8D
:10053000013E031C952A83120313A009831603139B
:10054000070883120313A0052208A3002108003C1A
:100550000319B02A83120313A30D013E031CAA2A18
:1005600083120313230820048316031387000D2B23
:10057000013083120313A0002108003C0319C62A8E
:1005800083120313A00D013E031CC02A8312031320
:10059000A00983160313080883120313A005220879
:1005A000A3002108003C0319DB2A83120313A30DC7
:1005B000013E031CD52A831203132308200483164B
:1005C000031388000D2B013083120313A0002108B0
:1005D000003C0319F12A83120313A00D013E031CF2
:1005E000EB2A83120313A00983160313090883124D
:1005F0000313A0052208A3002108003C0319062BC1
:1006000083120313A30D013E031C002B831203135B
:1006100023082004831603138900080083120313A0
:10062000C5002323013A031D1C2B0030FF00831259
:10063000031345087023222B0130FF00831203139C
:1006400045087023080083120313C300C40104305B
:10065000430203186C2B0330831203138A003930D2
:10066000831203134307031C382B831203138A0AD4
:1006700082003D2B492B552B612B0030FF000130B0
:100680008A110A1204208A110A1283120313C40069
:100690006C2B0130FF0001308A110A1204208A11EC
:1006A0000A1283120313C4006C2B0230FF000130C6
:1006B0008A110A1204208A110A1283120313C40039
:1006C0006C2B0330FF0001308A110A1204208A11BA
:1006D0000A1283120313C400831203134408080090
:1006E00083120313C3007F08C400043043020318BD
:1006F000BE2B0330831203138A0087308312031347
:100700004307031C862B831203138A0A82008B2B58
:10071000982BA52BB22B831203134408FE00003044
:10072000FF0001308A110A1223218A110A12BE2BFE
:10073000831203134408FE000130FF0001308A11C8
:100740000A1223218A110A12BE2B831203134408B2
:10075000FE000230FF0001308A110A1223218A11A3
:100760000A12BE2B831203134408FE000330FF005D
:1007700001308A110A1223218A110A12080002305C
:100780000E23E8308A110A12E9248A110A1208009D
:1007900083120313C1007F08C20004304102031812
:1007A0000E2C0330831203138A00DF3083120313ED
:1007B0004107031CDE2B831203138A0A8200E32BFA
:1007C000EE2BF92B042C0030FE000030FF0001302E
:1007D0008A110A1219228A110A120E2C0030FE0008
:1007E0000130FF0001308A110A1219228A110A12FF
:1007F0000E2C0030FE000230FF0001308A110A1278
:1008000019228A110A120E2C0030FE000330FF005C
:1008100001308A110A1219228A110A128312031353
:100820004208FF0041088A110A1270238A110A1235
:1008300008003F30FE000530FF0080308A110A12A8
:10084000C8248A110A1283120313AF007F08AE0076
:100850004130B0000530B100831203132E08B200FE
:100860002F08B300FF30AE07031CAF033208330478
:100870000319B12C04303007B200B301B30D3108B5
:10088000B3073208FE003308FF0080308A110A12D5
:10089000C8248A110A1283120313B5007F08B4001A
:1008A0003008FE003108FF0080308A110A12C82487
:1008B0008A110A1283120313B700B3007F08B6002F
:1008C000B20002303007B200B301B30D3108B307F4
:1008D0003208FE003308FF0080308A110A12C82453
:1008E0008A110A1283120313B300B9007F08B20001
:1008F000B800831203133408B8003508B900FF307C
:10090000B407031CB503380839040319AA2C3608A8
:10091000FE003708FF0080308A110A12B5248A11C0
:100920000A1283120313B8003208831203138400DF
:1009300083138312031333188317380883120313A6
:10094000800083120313B60A0319B70AB20A031907
:10095000B30A792C063083120313B0070318B10AC7
:100960002C2C8A110A12182D0800003A0319BC2CED
:10097000803A0319C32C00347E08840083137F1847
:100980008317000808007F088A007E08820008009C
:10099000003A0319D02C803A0319DA2CFF010034F5
:1009A0007E08840083137F1883170008FF00840AE1
:1009B000000808008A110A12C324FD00FE0FFF037D
:1009C000FF0A8A110A12C324FC007D08FF007C087C
:1009D000080083120313BA00BB01BC018312031386
:1009E0003A08BD00BE0100303C02031DF92C3D0851
:1009F0003B020318172D783083120313BD00BE018C
:100A0000FF30831203133D07BF00FF30C0003E08D4
:100A100003183E0FC0073F08BD004008BE003F0856
:100A20004004031D002DBB0A0319BC0AEE2C08006C
:100A30000030FF0000308A110A12C8238A110A12FE
:100A40000030FF0001308A110A12C8238A110A12ED
:100A50000130FF0002308A110A12C8238A110A12DB
:100A60000030FF0003308A110A12C8238A110A12CB
:100A70008A110A12BF238A110A12382D0800013484
:100A80000034473405344634003401340034003433
:02400E00323F3F
:00000001FF
